{
  "_format": "hh-sol-artifact-1",
  "contractName": "TaskRewardPlatform",
  "sourceName": "contracts/TaskRewardPlatform.sol",
  "abi": [
    {
      "inputs": [],
      "stateMutability": "nonpayable",
      "type": "constructor"
    },
    {
      "anonymous": false,
      "inputs": [
        {
          "indexed": true,
          "internalType": "address",
          "name": "owner",
          "type": "address"
        },
        {
          "indexed": false,
          "internalType": "uint256",
          "name": "amount",
          "type": "uint256"
        }
      ],
      "name": "FeeWithdrawn",
      "type": "event"
    },
    {
      "anonymous": false,
      "inputs": [
        {
          "indexed": true,
          "internalType": "uint256",
          "name": "taskId",
          "type": "uint256"
        },
        {
          "indexed": true,
          "internalType": "address",
          "name": "creator",
          "type": "address"
        }
      ],
      "name": "TaskCancelled",
      "type": "event"
    },
    {
      "anonymous": false,
      "inputs": [
        {
          "indexed": true,
          "internalType": "uint256",
          "name": "taskId",
          "type": "uint256"
        },
        {
          "indexed": true,
          "internalType": "address",
          "name": "solver",
          "type": "address"
        },
        {
          "indexed": false,
          "internalType": "uint256",
          "name": "reward",
          "type": "uint256"
        }
      ],
      "name": "TaskCompleted",
      "type": "event"
    },
    {
      "anonymous": false,
      "inputs": [
        {
          "indexed": true,
          "internalType": "uint256",
          "name": "taskId",
          "type": "uint256"
        },
        {
          "indexed": true,
          "internalType": "address",
          "name": "creator",
          "type": "address"
        },
        {
          "indexed": false,
          "internalType": "string",
          "name": "title",
          "type": "string"
        },
        {
          "indexed": false,
          "internalType": "uint256",
          "name": "reward",
          "type": "uint256"
        },
        {
          "indexed": false,
          "internalType": "uint256",
          "name": "deadline",
          "type": "uint256"
        }
      ],
      "name": "TaskCreated",
      "type": "event"
    },
    {
      "anonymous": false,
      "inputs": [
        {
          "indexed": true,
          "internalType": "uint256",
          "name": "taskId",
          "type": "uint256"
        },
        {
          "indexed": false,
          "internalType": "uint256",
          "name": "newDeadline",
          "type": "uint256"
        }
      ],
      "name": "TaskDeadlineExtended",
      "type": "event"
    },
    {
      "anonymous": false,
      "inputs": [
        {
          "indexed": true,
          "internalType": "uint256",
          "name": "taskId",
          "type": "uint256"
        },
        {
          "indexed": true,
          "internalType": "address",
          "name": "solver",
          "type": "address"
        }
      ],
      "name": "TaskTaken",
      "type": "event"
    },
    {
      "inputs": [],
      "name": "PLATFORM_FEE_DIVISOR",
      "outputs": [
        {
          "internalType": "uint256",
          "name": "",
          "type": "uint256"
        }
      ],
      "stateMutability": "view",
      "type": "function"
    },
    {
      "inputs": [],
      "name": "PLATFORM_FEE_PERCENT",
      "outputs": [
        {
          "internalType": "uint256",
          "name": "",
          "type": "uint256"
        }
      ],
      "stateMutability": "view",
      "type": "function"
    },
    {
      "inputs": [
        {
          "internalType": "uint256",
          "name": "_taskId",
          "type": "uint256"
        }
      ],
      "name": "cancelTask",
      "outputs": [],
      "stateMutability": "nonpayable",
      "type": "function"
    },
    {
      "inputs": [
        {
          "internalType": "string",
          "name": "_title",
          "type": "string"
        },
        {
          "internalType": "string",
          "name": "_description",
          "type": "string"
        },
        {
          "internalType": "uint256",
          "name": "_deadline",
          "type": "uint256"
        }
      ],
      "name": "createTask",
      "outputs": [],
      "stateMutability": "payable",
      "type": "function"
    },
    {
      "inputs": [
        {
          "internalType": "uint256",
          "name": "_taskId",
          "type": "uint256"
        },
        {
          "internalType": "uint256",
          "name": "_newDeadline",
          "type": "uint256"
        }
      ],
      "name": "extendDeadline",
      "outputs": [],
      "stateMutability": "nonpayable",
      "type": "function"
    },
    {
      "inputs": [
        {
          "internalType": "address",
          "name": "_user",
          "type": "address"
        }
      ],
      "name": "getCreatedTasks",
      "outputs": [
        {
          "internalType": "uint256[]",
          "name": "taskIds",
          "type": "uint256[]"
        }
      ],
      "stateMutability": "view",
      "type": "function"
    },
    {
      "inputs": [
        {
          "internalType": "address",
          "name": "_user",
          "type": "address"
        }
      ],
      "name": "getSolvedTasks",
      "outputs": [
        {
          "internalType": "uint256[]",
          "name": "taskIds",
          "type": "uint256[]"
        }
      ],
      "stateMutability": "view",
      "type": "function"
    },
    {
      "inputs": [
        {
          "internalType": "uint256",
          "name": "_taskId",
          "type": "uint256"
        }
      ],
      "name": "getTaskDetails",
      "outputs": [
        {
          "internalType": "address",
          "name": "creator",
          "type": "address"
        },
        {
          "internalType": "string",
          "name": "title",
          "type": "string"
        },
        {
          "internalType": "string",
          "name": "description",
          "type": "string"
        },
        {
          "internalType": "uint256",
          "name": "reward",
          "type": "uint256"
        },
        {
          "internalType": "uint256",
          "name": "deadline",
          "type": "uint256"
        },
        {
          "internalType": "uint8",
          "name": "status",
          "type": "uint8"
        },
        {
          "internalType": "address",
          "name": "solver",
          "type": "address"
        }
      ],
      "stateMutability": "view",
      "type": "function"
    },
    {
      "inputs": [],
      "name": "owner",
      "outputs": [
        {
          "internalType": "address",
          "name": "",
          "type": "address"
        }
      ],
      "stateMutability": "view",
      "type": "function"
    },
    {
      "inputs": [],
      "name": "platformBalance",
      "outputs": [
        {
          "internalType": "uint256",
          "name": "",
          "type": "uint256"
        }
      ],
      "stateMutability": "view",
      "type": "function"
    },
    {
      "inputs": [
        {
          "internalType": "uint256",
          "name": "_taskId",
          "type": "uint256"
        }
      ],
      "name": "submitTask",
      "outputs": [],
      "stateMutability": "nonpayable",
      "type": "function"
    },
    {
      "inputs": [
        {
          "internalType": "uint256",
          "name": "_taskId",
          "type": "uint256"
        }
      ],
      "name": "takeTask",
      "outputs": [],
      "stateMutability": "nonpayable",
      "type": "function"
    },
    {
      "inputs": [],
      "name": "taskCount",
      "outputs": [
        {
          "internalType": "uint256",
          "name": "",
          "type": "uint256"
        }
      ],
      "stateMutability": "view",
      "type": "function"
    },
    {
      "inputs": [
        {
          "internalType": "uint256",
          "name": "",
          "type": "uint256"
        }
      ],
      "name": "tasks",
      "outputs": [
        {
          "internalType": "address",
          "name": "creator",
          "type": "address"
        },
        {
          "internalType": "string",
          "name": "title",
          "type": "string"
        },
        {
          "internalType": "string",
          "name": "description",
          "type": "string"
        },
        {
          "internalType": "uint256",
          "name": "reward",
          "type": "uint256"
        },
        {
          "internalType": "uint256",
          "name": "deadline",
          "type": "uint256"
        },
        {
          "internalType": "enum TaskRewardPlatform.TaskStatus",
          "name": "status",
          "type": "uint8"
        },
        {
          "internalType": "address",
          "name": "solver",
          "type": "address"
        }
      ],
      "stateMutability": "view",
      "type": "function"
    },
    {
      "inputs": [
        {
          "internalType": "address",
          "name": "",
          "type": "address"
        },
        {
          "internalType": "uint256",
          "name": "",
          "type": "uint256"
        }
      ],
      "name": "userCreatedTasks",
      "outputs": [
        {
          "internalType": "uint256",
          "name": "",
          "type": "uint256"
        }
      ],
      "stateMutability": "view",
      "type": "function"
    },
    {
      "inputs": [
        {
          "internalType": "address",
          "name": "",
          "type": "address"
        },
        {
          "internalType": "uint256",
          "name": "",
          "type": "uint256"
        }
      ],
      "name": "userSolvedTasks",
      "outputs": [
        {
          "internalType": "uint256",
          "name": "",
          "type": "uint256"
        }
      ],
      "stateMutability": "view",
      "type": "function"
    },
    {
      "inputs": [
        {
          "internalType": "uint256",
          "name": "_amount",
          "type": "uint256"
        }
      ],
      "name": "withdrawFees",
      "outputs": [],
      "stateMutability": "nonpayable",
      "type": "function"
    }
  ],
  "bytecode": "0x6080604052348015600f57600080fd5b50336000806101000a81548173ffffffffffffffffffffffffffffffffffffffff021916908373ffffffffffffffffffffffffffffffffffffffff160217905550612b388061005f6000396000f3fe6080604052600436106100fe5760003560e01c80635e318e07116100955780638d977672116100645780638d9776721461033c5780638da5cb5b1461037f578063b6cb58a5146103aa578063d8107ccb146103d5578063e9a5217614610400576100fe565b80635e318e071461028257806362a5dbbc146102ab5780637eec20a8146102d657806381f113f8146102ff576100fe565b806341a4e30a116100d157806341a4e30a146101d5578063435533b9146101f1578063560d52d41461022e57806356deb11014610259576100fe565b8063290d693d146101035780632d1fdef61461014057806330a939fe146101695780633888b9d514610192575b600080fd5b34801561010f57600080fd5b5061012a60048036038101906101259190611932565b61043d565b6040516101379190611a27565b60405180910390f35b34801561014c57600080fd5b5061016760048036038101906101629190611a75565b6104d4565b005b34801561017557600080fd5b50610190600480360381019061018b9190611ab5565b610728565b005b34801561019e57600080fd5b506101b960048036038101906101b49190611ab5565b6109f9565b6040516101cc9796959493929190611bac565b60405180910390f35b6101ef60048036038101906101ea9190611d5e565b610c20565b005b3480156101fd57600080fd5b5061021860048036038101906102139190611de9565b610fd9565b6040516102259190611e29565b60405180910390f35b34801561023a57600080fd5b5061024361100a565b6040516102509190611e29565b60405180910390f35b34801561026557600080fd5b50610280600480360381019061027b9190611ab5565b61100f565b005b34801561028e57600080fd5b506102a960048036038101906102a49190611ab5565b611217565b005b3480156102b757600080fd5b506102c06113db565b6040516102cd9190611e29565b60405180910390f35b3480156102e257600080fd5b506102fd60048036038101906102f89190611ab5565b6113e1565b005b34801561030b57600080fd5b5061032660048036038101906103219190611de9565b611629565b6040516103339190611e29565b60405180910390f35b34801561034857600080fd5b50610363600480360381019061035e9190611ab5565b61165a565b6040516103769796959493929190611ebb565b60405180910390f35b34801561038b57600080fd5b506103946117f9565b6040516103a19190611f38565b60405180910390f35b3480156103b657600080fd5b506103bf61181d565b6040516103cc9190611e29565b60405180910390f35b3480156103e157600080fd5b506103ea611823565b6040516103f79190611e29565b60405180910390f35b34801561040c57600080fd5b5061042760048036038101906104229190611932565b611829565b6040516104349190611a27565b60405180910390f35b6060600260008373ffffffffffffffffffffffffffffffffffffffff1673ffffffffffffffffffffffffffffffffffffffff1681526020019081526020016000208054806020026020016040519081016040528092919081815260200182805480156104c857602002820191906000526020600020905b8154815260200190600101908083116104b4575b50505050509050919050565b816000811180156104e757506004548111155b610526576040517f08c379a000000000000000000000000000000000000000000000000000000000815260040161051d90611f9f565b60405180910390fd5b823373ffffffffffffffffffffffffffffffffffffffff166001600083815260200190815260200160002060000160009054906101000a900473ffffffffffffffffffffffffffffffffffffffff1673ffffffffffffffffffffffffffffffffffffffff16146105cb576040517f08c379a00000000000000000000000000000000000000000000000000000000081526004016105c290612031565b60405180910390fd5b6000600160008681526020019081526020016000209050600060038111156105f6576105f5611e44565b5b8160050160009054906101000a900460ff16600381111561061a57610619611e44565b5b148061065b57506001600381111561063557610634611e44565b5b8160050160009054906101000a900460ff16600381111561065957610658611e44565b5b145b61069a576040517f08c379a0000000000000000000000000000000000000000000000000000000008152600401610691906120c3565b60405180910390fd5b806004015484116106e0576040517f08c379a00000000000000000000000000000000000000000000000000000000081526004016106d790612155565b60405180910390fd5b838160040181905550847f8d0f6a4cfd7921441f1ba0ab1151bdf313da035f42337d403b6e756e9d67ef6d856040516107199190611e29565b60405180910390a25050505050565b8060008111801561073b57506004548111155b61077a576040517f08c379a000000000000000000000000000000000000000000000000000000000815260040161077190611f9f565b60405180910390fd5b816001600381111561078f5761078e611e44565b5b6001600083815260200190815260200160002060050160009054906101000a900460ff1660038111156107c5576107c4611e44565b5b14610805576040517f08c379a00000000000000000000000000000000000000000000000000000000081526004016107fc906121c1565b60405180910390fd5b823373ffffffffffffffffffffffffffffffffffffffff166001600083815260200190815260200160002060050160019054906101000a900473ffffffffffffffffffffffffffffffffffffffff1673ffffffffffffffffffffffffffffffffffffffff16146108aa576040517f08c379a00000000000000000000000000000000000000000000000000000000081526004016108a190612253565b60405180910390fd5b600060016000868152602001908152602001600020905060028160050160006101000a81548160ff021916908360038111156108e9576108e8611e44565b5b0217905550600360003373ffffffffffffffffffffffffffffffffffffffff1673ffffffffffffffffffffffffffffffffffffffff1681526020019081526020016000208590806001815401808255809150506001900390600052602060002001600090919091909150553373ffffffffffffffffffffffffffffffffffffffff166108fc82600301549081150290604051600060405180830381858888f1935050505015801561099e573d6000803e3d6000fd5b503373ffffffffffffffffffffffffffffffffffffffff16857f843af93d40addceac6932508439844b897d4df9e971db326d557e3cdaa9f3ebf83600301546040516109ea9190611e29565b60405180910390a35050505050565b600060608060008060008087600081118015610a1757506004548111155b610a56576040517f08c379a0000000000000000000000000000000000000000000000000000000008152600401610a4d90611f9f565b60405180910390fd5b6000600160008b815260200190815260200160002090508060000160009054906101000a900473ffffffffffffffffffffffffffffffffffffffff168160010182600201836003015484600401548560050160009054906101000a900460ff166003811115610ac857610ac7611e44565b5b8660050160019054906101000a900473ffffffffffffffffffffffffffffffffffffffff16858054610af9906122a2565b80601f0160208091040260200160405190810160405280929190818152602001828054610b25906122a2565b8015610b725780601f10610b4757610100808354040283529160200191610b72565b820191906000526020600020905b815481529060010190602001808311610b5557829003601f168201915b50505050509550848054610b85906122a2565b80601f0160208091040260200160405190810160405280929190818152602001828054610bb1906122a2565b8015610bfe5780601f10610bd357610100808354040283529160200191610bfe565b820191906000526020600020905b815481529060010190602001808311610be157829003601f168201915b5050505050945098509850985098509850985098505050919395979092949650565b60003411610c63576040517f08c379a0000000000000000000000000000000000000000000000000000000008152600401610c5a9061231f565b60405180910390fd5b428111610ca5576040517f08c379a0000000000000000000000000000000000000000000000000000000008152600401610c9c9061238b565b60405180910390fd5b6000835111610ce9576040517f08c379a0000000000000000000000000000000000000000000000000000000008152600401610ce0906123f7565b60405180910390fd5b6000825111610d2d576040517f08c379a0000000000000000000000000000000000000000000000000000000008152600401610d2490612463565b60405180910390fd5b60006103e8600534610d3f91906124b2565b610d499190612523565b905060008134610d599190612554565b90508160056000828254610d6d9190612588565b9250508190555060046000815480929190610d87906125bc565b91905055506040518060e001604052803373ffffffffffffffffffffffffffffffffffffffff16815260200186815260200185815260200182815260200184815260200160006003811115610ddf57610dde611e44565b5b8152602001600073ffffffffffffffffffffffffffffffffffffffff1681525060016000600454815260200190815260200160002060008201518160000160006101000a81548173ffffffffffffffffffffffffffffffffffffffff021916908373ffffffffffffffffffffffffffffffffffffffff1602179055506020820151816001019081610e7091906127b0565b506040820151816002019081610e8691906127b0565b50606082015181600301556080820151816004015560a08201518160050160006101000a81548160ff02191690836003811115610ec657610ec5611e44565b5b021790555060c08201518160050160016101000a81548173ffffffffffffffffffffffffffffffffffffffff021916908373ffffffffffffffffffffffffffffffffffffffff160217905550905050600260003373ffffffffffffffffffffffffffffffffffffffff1673ffffffffffffffffffffffffffffffffffffffff16815260200190815260200160002060045490806001815401808255809150506001900390600052602060002001600090919091909150553373ffffffffffffffffffffffffffffffffffffffff166004547fdac01f3886a95e591b6ebef63858e5383c5f85b170876b4e18f380599b0a68a5878487604051610fca93929190612882565b60405180910390a35050505050565b60026020528160005260406000208181548110610ff557600080fd5b90600052602060002001600091509150505481565b600581565b8060008111801561102257506004548111155b611061576040517f08c379a000000000000000000000000000000000000000000000000000000000815260040161105890611f9f565b60405180910390fd5b816000600381111561107657611075611e44565b5b6001600083815260200190815260200160002060050160009054906101000a900460ff1660038111156110ac576110ab611e44565b5b146110ec576040517f08c379a00000000000000000000000000000000000000000000000000000000081526004016110e39061290c565b60405180910390fd5b8242600160008381526020019081526020016000206004015411611145576040517f08c379a000000000000000000000000000000000000000000000000000000000815260040161113c90612978565b60405180910390fd5b6000600160008681526020019081526020016000209050338160050160016101000a81548173ffffffffffffffffffffffffffffffffffffffff021916908373ffffffffffffffffffffffffffffffffffffffff16021790555060018160050160006101000a81548160ff021916908360038111156111c7576111c6611e44565b5b02179055503373ffffffffffffffffffffffffffffffffffffffff16857f958c71e470fd97af28579d832a7e3450d0df0c2bf36b188ffc7ecf861c7d668960405160405180910390a35050505050565b60008054906101000a900473ffffffffffffffffffffffffffffffffffffffff1673ffffffffffffffffffffffffffffffffffffffff163373ffffffffffffffffffffffffffffffffffffffff16146112a5576040517f08c379a000000000000000000000000000000000000000000000000000000000815260040161129c90612a0a565b60405180910390fd5b6005548111156112ea576040517f08c379a00000000000000000000000000000000000000000000000000000000081526004016112e190612a76565b60405180910390fd5b80600560008282546112fc9190612554565b9250508190555060008054906101000a900473ffffffffffffffffffffffffffffffffffffffff1673ffffffffffffffffffffffffffffffffffffffff166108fc829081150290604051600060405180830381858888f19350505050158015611369573d6000803e3d6000fd5b5060008054906101000a900473ffffffffffffffffffffffffffffffffffffffff1673ffffffffffffffffffffffffffffffffffffffff167f78473f3f373f7673597f4f0fa5873cb4d375fea6d4339ad6b56dbd411513cb3f826040516113d09190611e29565b60405180910390a250565b60055481565b806000811180156113f457506004548111155b611433576040517f08c379a000000000000000000000000000000000000000000000000000000000815260040161142a90611f9f565b60405180910390fd5b813373ffffffffffffffffffffffffffffffffffffffff166001600083815260200190815260200160002060000160009054906101000a900473ffffffffffffffffffffffffffffffffffffffff1673ffffffffffffffffffffffffffffffffffffffff16146114d8576040517f08c379a00000000000000000000000000000000000000000000000000000000081526004016114cf90612031565b60405180910390fd5b60006001600085815260200190815260200160002090506000600381111561150357611502611e44565b5b8160050160009054906101000a900460ff16600381111561152757611526611e44565b5b14611567576040517f08c379a000000000000000000000000000000000000000000000000000000000815260040161155e90612ae2565b60405180910390fd5b60038160050160006101000a81548160ff0219169083600381111561158f5761158e611e44565b5b02179055503373ffffffffffffffffffffffffffffffffffffffff166108fc82600301549081150290604051600060405180830381858888f193505050501580156115de573d6000803e3d6000fd5b503373ffffffffffffffffffffffffffffffffffffffff16847f76be7f7b12bf790225259ca3b7ffb98f222f79af3c4c074e88e0c97af6f1402560405160405180910390a350505050565b6003602052816000526040600020818154811061164557600080fd5b90600052602060002001600091509150505481565b60016020528060005260406000206000915090508060000160009054906101000a900473ffffffffffffffffffffffffffffffffffffffff16908060010180546116a3906122a2565b80601f01602080910402602001604051908101604052809291908181526020018280546116cf906122a2565b801561171c5780601f106116f15761010080835404028352916020019161171c565b820191906000526020600020905b8154815290600101906020018083116116ff57829003601f168201915b505050505090806002018054611731906122a2565b80601f016020809104026020016040519081016040528092919081815260200182805461175d906122a2565b80156117aa5780601f1061177f576101008083540402835291602001916117aa565b820191906000526020600020905b81548152906001019060200180831161178d57829003601f168201915b5050505050908060030154908060040154908060050160009054906101000a900460ff16908060050160019054906101000a900473ffffffffffffffffffffffffffffffffffffffff16905087565b60008054906101000a900473ffffffffffffffffffffffffffffffffffffffff1681565b60045481565b6103e881565b6060600360008373ffffffffffffffffffffffffffffffffffffffff1673ffffffffffffffffffffffffffffffffffffffff1681526020019081526020016000208054806020026020016040519081016040528092919081815260200182805480156118b457602002820191906000526020600020905b8154815260200190600101908083116118a0575b50505050509050919050565b6000604051905090565b600080fd5b600080fd5b600073ffffffffffffffffffffffffffffffffffffffff82169050919050565b60006118ff826118d4565b9050919050565b61190f816118f4565b811461191a57600080fd5b50565b60008135905061192c81611906565b92915050565b600060208284031215611948576119476118ca565b5b60006119568482850161191d565b91505092915050565b600081519050919050565b600082825260208201905092915050565b6000819050602082019050919050565b6000819050919050565b61199e8161198b565b82525050565b60006119b08383611995565b60208301905092915050565b6000602082019050919050565b60006119d48261195f565b6119de818561196a565b93506119e98361197b565b8060005b83811015611a1a578151611a0188826119a4565b9750611a0c836119bc565b9250506001810190506119ed565b5085935050505092915050565b60006020820190508181036000830152611a4181846119c9565b905092915050565b611a528161198b565b8114611a5d57600080fd5b50565b600081359050611a6f81611a49565b92915050565b60008060408385031215611a8c57611a8b6118ca565b5b6000611a9a85828601611a60565b9250506020611aab85828601611a60565b9150509250929050565b600060208284031215611acb57611aca6118ca565b5b6000611ad984828501611a60565b91505092915050565b611aeb816118f4565b82525050565b600081519050919050565b600082825260208201905092915050565b60005b83811015611b2b578082015181840152602081019050611b10565b60008484015250505050565b6000601f19601f8301169050919050565b6000611b5382611af1565b611b5d8185611afc565b9350611b6d818560208601611b0d565b611b7681611b37565b840191505092915050565b611b8a8161198b565b82525050565b600060ff82169050919050565b611ba681611b90565b82525050565b600060e082019050611bc1600083018a611ae2565b8181036020830152611bd38189611b48565b90508181036040830152611be78188611b48565b9050611bf66060830187611b81565b611c036080830186611b81565b611c1060a0830185611b9d565b611c1d60c0830184611ae2565b98975050505050505050565b600080fd5b600080fd5b7f4e487b7100000000000000000000000000000000000000000000000000000000600052604160045260246000fd5b611c6b82611b37565b810181811067ffffffffffffffff82111715611c8a57611c89611c33565b5b80604052505050565b6000611c9d6118c0565b9050611ca98282611c62565b919050565b600067ffffffffffffffff821115611cc957611cc8611c33565b5b611cd282611b37565b9050602081019050919050565b82818337600083830152505050565b6000611d01611cfc84611cae565b611c93565b905082815260208101848484011115611d1d57611d1c611c2e565b5b611d28848285611cdf565b509392505050565b600082601f830112611d4557611d44611c29565b5b8135611d55848260208601611cee565b91505092915050565b600080600060608486031215611d7757611d766118ca565b5b600084013567ffffffffffffffff811115611d9557611d946118cf565b5b611da186828701611d30565b935050602084013567ffffffffffffffff811115611dc257611dc16118cf565b5b611dce86828701611d30565b9250506040611ddf86828701611a60565b9150509250925092565b60008060408385031215611e0057611dff6118ca565b5b6000611e0e8582860161191d565b9250506020611e1f85828601611a60565b9150509250929050565b6000602082019050611e3e6000830184611b81565b92915050565b7f4e487b7100000000000000000000000000000000000000000000000000000000600052602160045260246000fd5b60048110611e8457611e83611e44565b5b50565b6000819050611e9582611e73565b919050565b6000611ea582611e87565b9050919050565b611eb581611e9a565b82525050565b600060e082019050611ed0600083018a611ae2565b8181036020830152611ee28189611b48565b90508181036040830152611ef68188611b48565b9050611f056060830187611b81565b611f126080830186611b81565b611f1f60a0830185611eac565b611f2c60c0830184611ae2565b98975050505050505050565b6000602082019050611f4d6000830184611ae2565b92915050565b7f5461736b20646f6573206e6f7420657869737400000000000000000000000000600082015250565b6000611f89601383611afc565b9150611f9482611f53565b602082019050919050565b60006020820190508181036000830152611fb881611f7c565b9050919050565b7f4f6e6c79207461736b2063726561746f722063616e2063616c6c20746869732060008201527f66756e6374696f6e000000000000000000000000000000000000000000000000602082015250565b600061201b602883611afc565b915061202682611fbf565b604082019050919050565b6000602082019050818103600083015261204a8161200e565b9050919050565b7f43616e6e6f7420657874656e6420646561646c696e65206f6620636f6d706c6560008201527f746564206f722063616e63656c6c6564207461736b7300000000000000000000602082015250565b60006120ad603683611afc565b91506120b882612051565b604082019050919050565b600060208201905081810360008301526120dc816120a0565b9050919050565b7f4e657720646561646c696e65206d757374206265206c61746572207468616e2060008201527f63757272656e7420646561646c696e6500000000000000000000000000000000602082015250565b600061213f603083611afc565b915061214a826120e3565b604082019050919050565b6000602082019050818103600083015261216e81612132565b9050919050565b7f5461736b206973206e6f7420696e2070726f6772657373000000000000000000600082015250565b60006121ab601783611afc565b91506121b682612175565b602082019050919050565b600060208201905081810360008301526121da8161219e565b9050919050565b7f4f6e6c79207461736b20736f6c7665722063616e2063616c6c2074686973206660008201527f756e6374696f6e00000000000000000000000000000000000000000000000000602082015250565b600061223d602783611afc565b9150612248826121e1565b604082019050919050565b6000602082019050818103600083015261226c81612230565b9050919050565b7f4e487b7100000000000000000000000000000000000000000000000000000000600052602260045260246000fd5b600060028204905060018216806122ba57607f821691505b6020821081036122cd576122cc612273565b5b50919050565b7f526577617264206d7573742062652067726561746572207468616e2030000000600082015250565b6000612309601d83611afc565b9150612314826122d3565b602082019050919050565b60006020820190508181036000830152612338816122fc565b9050919050565b7f446561646c696e65206d75737420626520696e20746865206675747572650000600082015250565b6000612375601e83611afc565b91506123808261233f565b602082019050919050565b600060208201905081810360008301526123a481612368565b9050919050565b7f5469746c652063616e6e6f7420626520656d7074790000000000000000000000600082015250565b60006123e1601583611afc565b91506123ec826123ab565b602082019050919050565b60006020820190508181036000830152612410816123d4565b9050919050565b7f4465736372697074696f6e2063616e6e6f7420626520656d7074790000000000600082015250565b600061244d601b83611afc565b915061245882612417565b602082019050919050565b6000602082019050818103600083015261247c81612440565b9050919050565b7f4e487b7100000000000000000000000000000000000000000000000000000000600052601160045260246000fd5b60006124bd8261198b565b91506124c88361198b565b92508282026124d68161198b565b915082820484148315176124ed576124ec612483565b5b5092915050565b7f4e487b7100000000000000000000000000000000000000000000000000000000600052601260045260246000fd5b600061252e8261198b565b91506125398361198b565b925082612549576125486124f4565b5b828204905092915050565b600061255f8261198b565b915061256a8361198b565b925082820390508181111561258257612581612483565b5b92915050565b60006125938261198b565b915061259e8361198b565b92508282019050808211156125b6576125b5612483565b5b92915050565b60006125c78261198b565b91507fffffffffffffffffffffffffffffffffffffffffffffffffffffffffffffffff82036125f9576125f8612483565b5b600182019050919050565b60008190508160005260206000209050919050565b60006020601f8301049050919050565b600082821b905092915050565b6000600883026126667fffffffffffffffffffffffffffffffffffffffffffffffffffffffffffffffff82612629565b6126708683612629565b95508019841693508086168417925050509392505050565b6000819050919050565b60006126ad6126a86126a38461198b565b612688565b61198b565b9050919050565b6000819050919050565b6126c783612692565b6126db6126d3826126b4565b848454612636565b825550505050565b600090565b6126f06126e3565b6126fb8184846126be565b505050565b5b8181101561271f576127146000826126e8565b600181019050612701565b5050565b601f8211156127645761273581612604565b61273e84612619565b8101602085101561274d578190505b61276161275985612619565b830182612700565b50505b505050565b600082821c905092915050565b600061278760001984600802612769565b1980831691505092915050565b60006127a08383612776565b9150826002028217905092915050565b6127b982611af1565b67ffffffffffffffff8111156127d2576127d1611c33565b5b6127dc82546122a2565b6127e7828285612723565b600060209050601f83116001811461281a5760008415612808578287015190505b6128128582612794565b86555061287a565b601f19841661282886612604565b60005b828110156128505784890151825560018201915060208501945060208101905061282b565b8683101561286d5784890151612869601f891682612776565b8355505b6001600288020188555050505b505050505050565b6000606082019050818103600083015261289c8186611b48565b90506128ab6020830185611b81565b6128b86040830184611b81565b949350505050565b7f5461736b206973206e6f74206f70656e00000000000000000000000000000000600082015250565b60006128f6601083611afc565b9150612901826128c0565b602082019050919050565b60006020820190508181036000830152612925816128e9565b9050919050565b7f5461736b20646561646c696e6520686173206578706972656400000000000000600082015250565b6000612962601983611afc565b915061296d8261292c565b602082019050919050565b6000602082019050818103600083015261299181612955565b9050919050565b7f4f6e6c79206f776e65722063616e2063616c6c20746869732066756e6374696f60008201527f6e00000000000000000000000000000000000000000000000000000000000000602082015250565b60006129f4602183611afc565b91506129ff82612998565b604082019050919050565b60006020820190508181036000830152612a23816129e7565b9050919050565b7f496e73756666696369656e742062616c616e6365000000000000000000000000600082015250565b6000612a60601483611afc565b9150612a6b82612a2a565b602082019050919050565b60006020820190508181036000830152612a8f81612a53565b9050919050565b7f4f6e6c79206f70656e207461736b732063616e2062652063616e63656c6c6564600082015250565b6000612acc602083611afc565b9150612ad782612a96565b602082019050919050565b60006020820190508181036000830152612afb81612abf565b905091905056fea2646970667358221220e914c03539d79791f62e37ae721bfed09c37e397d02ca1720bd7428529e1add964736f6c634300081c0033",
  "linkReferences": {},
  "deployedLinkReferences": {}
}